{
  "contractName": "Shipping",
  "abi": [
    {
      "inputs": [],
      "stateMutability": "nonpayable",
      "type": "constructor"
    },
    {
      "anonymous": false,
      "inputs": [
        {
          "indexed": false,
          "internalType": "string",
          "name": "description",
          "type": "string"
        }
      ],
      "name": "LogNewAlert",
      "type": "event"
    },
    {
      "inputs": [],
      "name": "Shipped",
      "outputs": [],
      "stateMutability": "nonpayable",
      "type": "function"
    },
    {
      "inputs": [],
      "name": "Delivered",
      "outputs": [],
      "stateMutability": "nonpayable",
      "type": "function"
    },
    {
      "inputs": [],
      "name": "getStatus",
      "outputs": [
        {
          "internalType": "string",
          "name": "",
          "type": "string"
        }
      ],
      "stateMutability": "view",
      "type": "function",
      "constant": true
    }
  ],
  "bytecode": "0x608060405234801561000f575f80fd5b505f805f6101000a81548160ff021916908360028111156100335761003261003d565b5b021790555061006a565b7f4e487b71000000000000000000000000000000000000000000000000000000005f52602160045260245ffd5b6104ad806100775f395ff3fe608060405234801561000f575f80fd5b506004361061003f575f3560e01c80634e69d56014610043578063779822f7146100615780637e59301e1461006b575b5f80fd5b61004b610075565b604051610058919061035a565b60405180910390f35b610069610210565b005b610073610270565b005b60605f600281111561008a5761008961037a565b5b5f8054906101000a900460ff1660028111156100a9576100a861037a565b5b036100eb576040518060400160405280600781526020017f50656e64696e6700000000000000000000000000000000000000000000000000815250905061020d565b600160028111156100ff576100fe61037a565b5b5f8054906101000a900460ff16600281111561011e5761011d61037a565b5b03610160576040518060400160405280600781526020017f5368697070656400000000000000000000000000000000000000000000000000815250905061020d565b6002808111156101735761017261037a565b5b5f8054906101000a900460ff1660028111156101925761019161037a565b5b036101d4576040518060400160405280600981526020017f44656c6976657265640000000000000000000000000000000000000000000000815250905061020d565b6040518060400160405280600e81526020017f556e6b6e6f776e2053746174757300000000000000000000000000000000000081525090505b90565b60025f806101000a81548160ff021916908360028111156102345761023361037a565b5b02179055507fca75c80642b93c980135b8355995abae3ab06033dc81f956b3824323b4903ef5604051610266906103f1565b60405180910390a1565b60015f806101000a81548160ff021916908360028111156102945761029361037a565b5b02179055507fca75c80642b93c980135b8355995abae3ab06033dc81f956b3824323b4903ef56040516102c690610459565b60405180910390a1565b5f81519050919050565b5f82825260208201905092915050565b5f5b838110156103075780820151818401526020810190506102ec565b5f8484015250505050565b5f601f19601f8301169050919050565b5f61032c826102d0565b61033681856102da565b93506103468185602086016102ea565b61034f81610312565b840191505092915050565b5f6020820190508181035f8301526103728184610322565b905092915050565b7f4e487b71000000000000000000000000000000000000000000000000000000005f52602160045260245ffd5b7f596f7572207061636b61676520686173206172726976656400000000000000005f82015250565b5f6103db6018836102da565b91506103e6826103a7565b602082019050919050565b5f6020820190508181035f830152610408816103cf565b9050919050565b7f596f7572207061636b61676520686173206265656e20736869707065640000005f82015250565b5f610443601d836102da565b915061044e8261040f565b602082019050919050565b5f6020820190508181035f83015261047081610437565b905091905056fea2646970667358221220784f643a789096aec6e2f6f24dec1ac9dd36a59308eb7d1fd4b6d58825bcf87e64736f6c63430008150033",
  "immutableReferences": {},
  "source": "// SPDX-License-Identifier: MIT\npragma solidity >0.4.25 <0.9.0;\n\ncontract Shipping {\n    // Our predefined values for shipping listed as enums\n    enum ShippingStatus { Pending, Shipped, Delivered }\n\n    // Save enum ShippingStatus in variable status\n    ShippingStatus private status;\n\n    // Event to launch when package has arrived\n    event LogNewAlert(string description);\n\n    // This initializes our contract state (sets enum to Pending once the program starts)\n    constructor() {\n        status = ShippingStatus.Pending;\n    }\n\n    // Function to change to Shipped\n    function Shipped() public {\n        status = ShippingStatus.Shipped;\n        emit LogNewAlert(\"Your package has been shipped\");\n    }\n\n    // Function to change to Delivered\n    function Delivered() public {\n        status = ShippingStatus.Delivered;\n        emit LogNewAlert(\"Your package has arrived\");\n    }\n\n    // Modified function to return status as a string\n    function getStatus() public view returns (string memory) { // Change 1: updated function signature\n        if (status == ShippingStatus.Pending) return \"Pending\"; // Change 2: return string for Pending\n        if (status == ShippingStatus.Shipped) return \"Shipped\"; // Change 3: return string for Shipped\n        if (status == ShippingStatus.Delivered) return \"Delivered\"; // Change 4: return string for Delivered\n        return \"Unknown Status\"; // Optional: handles case if status is somehow not set\n    }\n\n}\n",
  "sourcePath": "/home/tech_star01/newSolidityProject/contracts/Shipping.sol",
  "compiler": {
    "name": "solc",
    "version": "0.8.21+commit.d9974bed.Emscripten.clang"
  },
  "schemaVersion": "3.4.16",
  "updatedAt": "2024-10-17T15:02:38.371Z",
  "networkType": "ethereum",
  "devdoc": {
    "kind": "dev",
    "methods": {},
    "version": 1
  },
  "userdoc": {
    "kind": "user",
    "methods": {},
    "version": 1
  }
}